{
    "_format": "hh-sol-artifact-1",
    "contractName": "Ballot",
    "sourceName": "contracts/TokenizedBallot.sol",
    "abi": [
        {
            "inputs": [
                {
                    "internalType": "bytes32[]",
                    "name": "proposalNames",
                    "type": "bytes32[]"
                },
                {
                    "internalType": "address",
                    "name": "_ERC20Token",
                    "type": "address"
                },
                {
                    "internalType": "uint256",
                    "name": "_targetBlocknumber",
                    "type": "uint256"
                }
            ],
            "stateMutability": "nonpayable",
            "type": "constructor"
        },
        {
            "inputs": [],
            "name": "ERC20Token",
            "outputs": [
                {
                    "internalType": "contract MyERC20Votes",
                    "name": "",
                    "type": "address"
                }
            ],
            "stateMutability": "view",
            "type": "function"
        },
        {
            "inputs": [],
            "name": "buyVotingTokens",
            "outputs": [],
            "stateMutability": "payable",
            "type": "function"
        },
        {
            "inputs": [
                {
                    "internalType": "uint256",
                    "name": "",
                    "type": "uint256"
                }
            ],
            "name": "proposals",
            "outputs": [
                {
                    "internalType": "bytes32",
                    "name": "name",
                    "type": "bytes32"
                },
                {
                    "internalType": "uint256",
                    "name": "voteCount",
                    "type": "uint256"
                }
            ],
            "stateMutability": "view",
            "type": "function"
        },
        {
            "inputs": [],
            "name": "targetBlockNumber",
            "outputs": [
                {
                    "internalType": "uint256",
                    "name": "",
                    "type": "uint256"
                }
            ],
            "stateMutability": "view",
            "type": "function"
        },
        {
            "inputs": [
                {
                    "internalType": "uint256",
                    "name": "proposal",
                    "type": "uint256"
                },
                {
                    "internalType": "uint256",
                    "name": "amountToVote",
                    "type": "uint256"
                }
            ],
            "name": "vote",
            "outputs": [],
            "stateMutability": "nonpayable",
            "type": "function"
        },
        {
            "inputs": [
                {
                    "internalType": "address",
                    "name": "account",
                    "type": "address"
                }
            ],
            "name": "votingPower",
            "outputs": [
                {
                    "internalType": "uint256",
                    "name": "votingPower_",
                    "type": "uint256"
                }
            ],
            "stateMutability": "view",
            "type": "function"
        },
        {
            "inputs": [
                {
                    "internalType": "address",
                    "name": "",
                    "type": "address"
                }
            ],
            "name": "votingPowerSpent",
            "outputs": [
                {
                    "internalType": "uint256",
                    "name": "",
                    "type": "uint256"
                }
            ],
            "stateMutability": "view",
            "type": "function"
        },
        {
            "inputs": [],
            "name": "winnerName",
            "outputs": [
                {
                    "internalType": "bytes32",
                    "name": "winnerName_",
                    "type": "bytes32"
                }
            ],
            "stateMutability": "view",
            "type": "function"
        },
        {
            "inputs": [],
            "name": "winningProposal",
            "outputs": [
                {
                    "internalType": "uint256",
                    "name": "winningProposal_",
                    "type": "uint256"
                }
            ],
            "stateMutability": "view",
            "type": "function"
        }
    ],
    "bytecode": "0x60806040523480156200001157600080fd5b5060405162000e2a38038062000e2a833981810160405281019062000037919062000383565b80600181905550816000806101000a81548173ffffffffffffffffffffffffffffffffffffffff021916908373ffffffffffffffffffffffffffffffffffffffff16021790555060005b8351811015620001155760026040518060400160405280868481518110620000ae57620000ad620003fe565b5b60200260200101518152602001600081525090806001815401808255809150506001900390600052602060002090600202016000909190919091506000820151816000015560208201518160010155505080806200010c906200045c565b91505062000081565b50505050620004a9565b6000604051905090565b600080fd5b600080fd5b600080fd5b6000601f19601f8301169050919050565b7f4e487b7100000000000000000000000000000000000000000000000000000000600052604160045260246000fd5b620001838262000138565b810181811067ffffffffffffffff82111715620001a557620001a462000149565b5b80604052505050565b6000620001ba6200011f565b9050620001c8828262000178565b919050565b600067ffffffffffffffff821115620001eb57620001ea62000149565b5b602082029050602081019050919050565b600080fd5b6000819050919050565b620002168162000201565b81146200022257600080fd5b50565b60008151905062000236816200020b565b92915050565b6000620002536200024d84620001cd565b620001ae565b90508083825260208201905060208402830185811115620002795762000278620001fc565b5b835b81811015620002a6578062000291888262000225565b8452602084019350506020810190506200027b565b5050509392505050565b600082601f830112620002c857620002c762000133565b5b8151620002da8482602086016200023c565b91505092915050565b600073ffffffffffffffffffffffffffffffffffffffff82169050919050565b60006200031082620002e3565b9050919050565b620003228162000303565b81146200032e57600080fd5b50565b600081519050620003428162000317565b92915050565b6000819050919050565b6200035d8162000348565b81146200036957600080fd5b50565b6000815190506200037d8162000352565b92915050565b6000806000606084860312156200039f576200039e62000129565b5b600084015167ffffffffffffffff811115620003c057620003bf6200012e565b5b620003ce86828701620002b0565b9350506020620003e18682870162000331565b9250506040620003f4868287016200036c565b9150509250925092565b7f4e487b7100000000000000000000000000000000000000000000000000000000600052603260045260246000fd5b7f4e487b7100000000000000000000000000000000000000000000000000000000600052601160045260246000fd5b6000620004698262000348565b91507fffffffffffffffffffffffffffffffffffffffffffffffffffffffffffffffff82036200049e576200049d6200042d565b5b600182019050919050565b61097180620004b96000396000f3fe6080604052600436106100865760003560e01c80637a80760e116100595780637a80760e14610129578063a720035114610154578063b384abef14610191578063c07473f6146101ba578063e2ba53f0146101f757610086565b8063013cf08b1461008b578063199548db146100c95780632a8cd29e146100d3578063609ff1bd146100fe575b600080fd5b34801561009757600080fd5b506100b260048036038101906100ad91906105ba565b610222565b6040516100c092919061060f565b60405180910390f35b6100d1610256565b005b3480156100df57600080fd5b506100e86102e5565b6040516100f59190610638565b60405180910390f35b34801561010a57600080fd5b506101136102eb565b6040516101209190610638565b60405180910390f35b34801561013557600080fd5b5061013e610373565b60405161014b91906106d2565b60405180910390f35b34801561016057600080fd5b5061017b6004803603810190610176919061072b565b610397565b6040516101889190610638565b60405180910390f35b34801561019d57600080fd5b506101b860048036038101906101b39190610758565b6103af565b005b3480156101c657600080fd5b506101e160048036038101906101dc919061072b565b61045a565b6040516101ee9190610638565b60405180910390f35b34801561020357600080fd5b5061020c61054b565b6040516102199190610798565b60405180910390f35b6002818154811061023257600080fd5b90600052602060002090600202016000915090508060000154908060010154905082565b60008054906101000a900473ffffffffffffffffffffffffffffffffffffffff1673ffffffffffffffffffffffffffffffffffffffff166340c10f1933346040518363ffffffff1660e01b81526004016102b19291906107c2565b600060405180830381600087803b1580156102cb57600080fd5b505af11580156102df573d6000803e3d6000fd5b50505050565b60015481565b6000806000905060005b60028054905081101561036e578160028281548110610317576103166107eb565b5b906000526020600020906002020160010154111561035b5760028181548110610343576103426107eb565b5b90600052602060002090600202016001015491508092505b808061036690610849565b9150506102f5565b505090565b60008054906101000a900473ffffffffffffffffffffffffffffffffffffffff1681565b60036020528060005260406000206000915090505481565b806103b93361045a565b10156103c457600080fd5b80600360003373ffffffffffffffffffffffffffffffffffffffff1673ffffffffffffffffffffffffffffffffffffffff16815260200190815260200160002060008282546104139190610891565b92505081905550806002838154811061042f5761042e6107eb565b5b9060005260206000209060020201600101600082825461044f9190610891565b925050819055505050565b6000600360008373ffffffffffffffffffffffffffffffffffffffff1673ffffffffffffffffffffffffffffffffffffffff1681526020019081526020016000205460008054906101000a900473ffffffffffffffffffffffffffffffffffffffff1673ffffffffffffffffffffffffffffffffffffffff16633a46b1a8846001546040518363ffffffff1660e01b81526004016104f99291906107c2565b602060405180830381865afa158015610516573d6000803e3d6000fd5b505050506040513d601f19601f8201168201806040525081019061053a91906108da565b6105449190610907565b9050919050565b600060026105576102eb565b81548110610568576105676107eb565b5b906000526020600020906002020160000154905090565b600080fd5b6000819050919050565b61059781610584565b81146105a257600080fd5b50565b6000813590506105b48161058e565b92915050565b6000602082840312156105d0576105cf61057f565b5b60006105de848285016105a5565b91505092915050565b6000819050919050565b6105fa816105e7565b82525050565b61060981610584565b82525050565b600060408201905061062460008301856105f1565b6106316020830184610600565b9392505050565b600060208201905061064d6000830184610600565b92915050565b600073ffffffffffffffffffffffffffffffffffffffff82169050919050565b6000819050919050565b600061069861069361068e84610653565b610673565b610653565b9050919050565b60006106aa8261067d565b9050919050565b60006106bc8261069f565b9050919050565b6106cc816106b1565b82525050565b60006020820190506106e760008301846106c3565b92915050565b60006106f882610653565b9050919050565b610708816106ed565b811461071357600080fd5b50565b600081359050610725816106ff565b92915050565b6000602082840312156107415761074061057f565b5b600061074f84828501610716565b91505092915050565b6000806040838503121561076f5761076e61057f565b5b600061077d858286016105a5565b925050602061078e858286016105a5565b9150509250929050565b60006020820190506107ad60008301846105f1565b92915050565b6107bc816106ed565b82525050565b60006040820190506107d760008301856107b3565b6107e46020830184610600565b9392505050565b7f4e487b7100000000000000000000000000000000000000000000000000000000600052603260045260246000fd5b7f4e487b7100000000000000000000000000000000000000000000000000000000600052601160045260246000fd5b600061085482610584565b91507fffffffffffffffffffffffffffffffffffffffffffffffffffffffffffffffff82036108865761088561081a565b5b600182019050919050565b600061089c82610584565b91506108a783610584565b92508282019050808211156108bf576108be61081a565b5b92915050565b6000815190506108d48161058e565b92915050565b6000602082840312156108f0576108ef61057f565b5b60006108fe848285016108c5565b91505092915050565b600061091282610584565b915061091d83610584565b92508282039050818111156109355761093461081a565b5b9291505056fea2646970667358221220ee1a0c19d18db88a127047411e6393172bf908e7e5d642267acfc3d411ea66cd64736f6c63430008120033",
    "linkReferences": {},
    "deployedLinkReferences": {}
}